{
  "_format": "hh-sol-artifact-1",
  "contractName": "GoCollectible",
  "sourceName": "contracts/GoCollectible.sol",
  "abi": [
    {
      "inputs": [
        {
          "internalType": "address",
          "name": "_factory",
          "type": "address"
        }
      ],
      "stateMutability": "nonpayable",
      "type": "constructor"
    },
    {
      "anonymous": false,
      "inputs": [
        {
          "indexed": true,
          "internalType": "address",
          "name": "account",
          "type": "address"
        },
        {
          "indexed": true,
          "internalType": "address",
          "name": "operator",
          "type": "address"
        },
        {
          "indexed": false,
          "internalType": "bool",
          "name": "approved",
          "type": "bool"
        }
      ],
      "name": "ApprovalForAll",
      "type": "event"
    },
    {
      "anonymous": false,
      "inputs": [
        {
          "indexed": true,
          "internalType": "address",
          "name": "previousOwner",
          "type": "address"
        },
        {
          "indexed": true,
          "internalType": "address",
          "name": "newOwner",
          "type": "address"
        }
      ],
      "name": "OwnershipTransferred",
      "type": "event"
    },
    {
      "anonymous": false,
      "inputs": [
        {
          "indexed": false,
          "internalType": "address",
          "name": "account",
          "type": "address"
        }
      ],
      "name": "Paused",
      "type": "event"
    },
    {
      "anonymous": false,
      "inputs": [
        {
          "indexed": true,
          "internalType": "address",
          "name": "operator",
          "type": "address"
        },
        {
          "indexed": true,
          "internalType": "address",
          "name": "from",
          "type": "address"
        },
        {
          "indexed": true,
          "internalType": "address",
          "name": "to",
          "type": "address"
        },
        {
          "indexed": false,
          "internalType": "uint256[]",
          "name": "ids",
          "type": "uint256[]"
        },
        {
          "indexed": false,
          "internalType": "uint256[]",
          "name": "values",
          "type": "uint256[]"
        }
      ],
      "name": "TransferBatch",
      "type": "event"
    },
    {
      "anonymous": false,
      "inputs": [
        {
          "indexed": true,
          "internalType": "address",
          "name": "operator",
          "type": "address"
        },
        {
          "indexed": true,
          "internalType": "address",
          "name": "from",
          "type": "address"
        },
        {
          "indexed": true,
          "internalType": "address",
          "name": "to",
          "type": "address"
        },
        {
          "indexed": false,
          "internalType": "uint256",
          "name": "id",
          "type": "uint256"
        },
        {
          "indexed": false,
          "internalType": "uint256",
          "name": "value",
          "type": "uint256"
        }
      ],
      "name": "TransferSingle",
      "type": "event"
    },
    {
      "anonymous": false,
      "inputs": [
        {
          "indexed": false,
          "internalType": "string",
          "name": "value",
          "type": "string"
        },
        {
          "indexed": true,
          "internalType": "uint256",
          "name": "id",
          "type": "uint256"
        }
      ],
      "name": "URI",
      "type": "event"
    },
    {
      "anonymous": false,
      "inputs": [
        {
          "indexed": false,
          "internalType": "address",
          "name": "account",
          "type": "address"
        }
      ],
      "name": "Unpaused",
      "type": "event"
    },
    {
      "inputs": [
        {
          "internalType": "address",
          "name": "account",
          "type": "address"
        },
        {
          "internalType": "uint256",
          "name": "id",
          "type": "uint256"
        }
      ],
      "name": "balanceOf",
      "outputs": [
        {
          "internalType": "uint256",
          "name": "",
          "type": "uint256"
        }
      ],
      "stateMutability": "view",
      "type": "function"
    },
    {
      "inputs": [
        {
          "internalType": "address[]",
          "name": "accounts",
          "type": "address[]"
        },
        {
          "internalType": "uint256[]",
          "name": "ids",
          "type": "uint256[]"
        }
      ],
      "name": "balanceOfBatch",
      "outputs": [
        {
          "internalType": "uint256[]",
          "name": "",
          "type": "uint256[]"
        }
      ],
      "stateMutability": "view",
      "type": "function"
    },
    {
      "inputs": [
        {
          "internalType": "address",
          "name": "_to",
          "type": "address"
        },
        {
          "internalType": "uint256[]",
          "name": "_ids",
          "type": "uint256[]"
        },
        {
          "internalType": "uint256[]",
          "name": "_quantities",
          "type": "uint256[]"
        },
        {
          "internalType": "bytes",
          "name": "_data",
          "type": "bytes"
        }
      ],
      "name": "batchMint",
      "outputs": [],
      "stateMutability": "nonpayable",
      "type": "function"
    },
    {
      "inputs": [
        {
          "internalType": "address",
          "name": "_initialOwner",
          "type": "address"
        },
        {
          "internalType": "uint256",
          "name": "_initialSupply",
          "type": "uint256"
        },
        {
          "internalType": "bytes",
          "name": "_data",
          "type": "bytes"
        }
      ],
      "name": "create",
      "outputs": [
        {
          "internalType": "uint256",
          "name": "",
          "type": "uint256"
        }
      ],
      "stateMutability": "nonpayable",
      "type": "function"
    },
    {
      "inputs": [
        {
          "internalType": "uint256",
          "name": "",
          "type": "uint256"
        }
      ],
      "name": "creators",
      "outputs": [
        {
          "internalType": "address",
          "name": "",
          "type": "address"
        }
      ],
      "stateMutability": "view",
      "type": "function"
    },
    {
      "inputs": [
        {
          "internalType": "address",
          "name": "_owner",
          "type": "address"
        },
        {
          "internalType": "address",
          "name": "_operator",
          "type": "address"
        }
      ],
      "name": "isApprovedForAll",
      "outputs": [
        {
          "internalType": "bool",
          "name": "isOperator",
          "type": "bool"
        }
      ],
      "stateMutability": "view",
      "type": "function"
    },
    {
      "inputs": [
        {
          "internalType": "address",
          "name": "_to",
          "type": "address"
        },
        {
          "internalType": "uint256",
          "name": "_id",
          "type": "uint256"
        },
        {
          "internalType": "uint256",
          "name": "_quantity",
          "type": "uint256"
        },
        {
          "internalType": "bytes",
          "name": "_data",
          "type": "bytes"
        }
      ],
      "name": "mint",
      "outputs": [],
      "stateMutability": "nonpayable",
      "type": "function"
    },
    {
      "inputs": [],
      "name": "name",
      "outputs": [
        {
          "internalType": "string",
          "name": "",
          "type": "string"
        }
      ],
      "stateMutability": "view",
      "type": "function"
    },
    {
      "inputs": [
        {
          "internalType": "address",
          "name": "",
          "type": "address"
        },
        {
          "internalType": "address",
          "name": "",
          "type": "address"
        },
        {
          "internalType": "uint256[]",
          "name": "",
          "type": "uint256[]"
        },
        {
          "internalType": "uint256[]",
          "name": "",
          "type": "uint256[]"
        },
        {
          "internalType": "bytes",
          "name": "",
          "type": "bytes"
        }
      ],
      "name": "onERC1155BatchReceived",
      "outputs": [
        {
          "internalType": "bytes4",
          "name": "",
          "type": "bytes4"
        }
      ],
      "stateMutability": "nonpayable",
      "type": "function"
    },
    {
      "inputs": [
        {
          "internalType": "address",
          "name": "",
          "type": "address"
        },
        {
          "internalType": "address",
          "name": "",
          "type": "address"
        },
        {
          "internalType": "uint256",
          "name": "",
          "type": "uint256"
        },
        {
          "internalType": "uint256",
          "name": "",
          "type": "uint256"
        },
        {
          "internalType": "bytes",
          "name": "",
          "type": "bytes"
        }
      ],
      "name": "onERC1155Received",
      "outputs": [
        {
          "internalType": "bytes4",
          "name": "",
          "type": "bytes4"
        }
      ],
      "stateMutability": "nonpayable",
      "type": "function"
    },
    {
      "inputs": [],
      "name": "owner",
      "outputs": [
        {
          "internalType": "address",
          "name": "",
          "type": "address"
        }
      ],
      "stateMutability": "view",
      "type": "function"
    },
    {
      "inputs": [],
      "name": "pause",
      "outputs": [],
      "stateMutability": "nonpayable",
      "type": "function"
    },
    {
      "inputs": [],
      "name": "paused",
      "outputs": [
        {
          "internalType": "bool",
          "name": "",
          "type": "bool"
        }
      ],
      "stateMutability": "view",
      "type": "function"
    },
    {
      "inputs": [],
      "name": "renounceOwnership",
      "outputs": [],
      "stateMutability": "nonpayable",
      "type": "function"
    },
    {
      "inputs": [
        {
          "internalType": "address",
          "name": "from",
          "type": "address"
        },
        {
          "internalType": "address",
          "name": "to",
          "type": "address"
        },
        {
          "internalType": "uint256[]",
          "name": "ids",
          "type": "uint256[]"
        },
        {
          "internalType": "uint256[]",
          "name": "amounts",
          "type": "uint256[]"
        },
        {
          "internalType": "bytes",
          "name": "data",
          "type": "bytes"
        }
      ],
      "name": "safeBatchTransferFrom",
      "outputs": [],
      "stateMutability": "nonpayable",
      "type": "function"
    },
    {
      "inputs": [
        {
          "internalType": "address",
          "name": "from",
          "type": "address"
        },
        {
          "internalType": "address",
          "name": "to",
          "type": "address"
        },
        {
          "internalType": "uint256",
          "name": "id",
          "type": "uint256"
        },
        {
          "internalType": "uint256",
          "name": "amount",
          "type": "uint256"
        },
        {
          "internalType": "bytes",
          "name": "data",
          "type": "bytes"
        }
      ],
      "name": "safeTransferFrom",
      "outputs": [],
      "stateMutability": "nonpayable",
      "type": "function"
    },
    {
      "inputs": [
        {
          "internalType": "address",
          "name": "operator",
          "type": "address"
        },
        {
          "internalType": "bool",
          "name": "approved",
          "type": "bool"
        }
      ],
      "name": "setApprovalForAll",
      "outputs": [],
      "stateMutability": "nonpayable",
      "type": "function"
    },
    {
      "inputs": [
        {
          "internalType": "string",
          "name": "_newBaseMetadataURI",
          "type": "string"
        }
      ],
      "name": "setBaseMetadataURI",
      "outputs": [],
      "stateMutability": "nonpayable",
      "type": "function"
    },
    {
      "inputs": [
        {
          "internalType": "address",
          "name": "_to",
          "type": "address"
        },
        {
          "internalType": "uint256[]",
          "name": "_ids",
          "type": "uint256[]"
        }
      ],
      "name": "setCreator",
      "outputs": [],
      "stateMutability": "nonpayable",
      "type": "function"
    },
    {
      "inputs": [
        {
          "internalType": "address",
          "name": "_factory",
          "type": "address"
        }
      ],
      "name": "setFactory",
      "outputs": [],
      "stateMutability": "nonpayable",
      "type": "function"
    },
    {
      "inputs": [
        {
          "internalType": "bytes4",
          "name": "interfaceId",
          "type": "bytes4"
        }
      ],
      "name": "supportsInterface",
      "outputs": [
        {
          "internalType": "bool",
          "name": "",
          "type": "bool"
        }
      ],
      "stateMutability": "view",
      "type": "function"
    },
    {
      "inputs": [],
      "name": "symbol",
      "outputs": [
        {
          "internalType": "string",
          "name": "",
          "type": "string"
        }
      ],
      "stateMutability": "view",
      "type": "function"
    },
    {
      "inputs": [
        {
          "internalType": "uint256",
          "name": "",
          "type": "uint256"
        }
      ],
      "name": "tokenSupply",
      "outputs": [
        {
          "internalType": "uint256",
          "name": "",
          "type": "uint256"
        }
      ],
      "stateMutability": "view",
      "type": "function"
    },
    {
      "inputs": [
        {
          "internalType": "uint256",
          "name": "_id",
          "type": "uint256"
        }
      ],
      "name": "totalSupply",
      "outputs": [
        {
          "internalType": "uint256",
          "name": "",
          "type": "uint256"
        }
      ],
      "stateMutability": "view",
      "type": "function"
    },
    {
      "inputs": [
        {
          "internalType": "address",
          "name": "newOwner",
          "type": "address"
        }
      ],
      "name": "transferOwnership",
      "outputs": [],
      "stateMutability": "nonpayable",
      "type": "function"
    },
    {
      "inputs": [],
      "name": "unpause",
      "outputs": [],
      "stateMutability": "nonpayable",
      "type": "function"
    },
    {
      "inputs": [
        {
          "internalType": "uint256",
          "name": "",
          "type": "uint256"
        }
      ],
      "name": "uri",
      "outputs": [
        {
          "internalType": "string",
          "name": "",
          "type": "string"
        }
      ],
      "stateMutability": "view",
      "type": "function"
    }
  ],
  "bytecode": "0x60806040523480156200001157600080fd5b50604051620027bf380380620027bf833981016040819052620000349162000236565b6040518060400160405280600d81526020016c4d79436f6c6c65637469626c6560981b8152506040518060400160405280600381526020016226a1a160e91b815250826040518060200160405280600081525062000098816200011d60201b60201c565b506003805460ff19169055620000ae3362000136565b8251620000c390600990602086019062000190565b508151620000d990600a90602085019062000190565b50600680546001600160a01b0319166001600160a01b0392909216919091179055505060408051602081019091526000815262000116906200011d565b50620002a4565b80516200013290600290602084019062000190565b5050565b600380546001600160a01b03838116610100818102610100600160a81b031985161790945560405193909204169182907f8be0079c531659141344cd1fd0a4f28419497f9722a3daafe3b4186f6b6457e090600090a35050565b8280546200019e9062000268565b90600052602060002090601f016020900481019282620001c257600085556200020d565b82601f10620001dd57805160ff19168380011785556200020d565b828001600101855582156200020d579182015b828111156200020d578251825591602001919060010190620001f0565b506200021b9291506200021f565b5090565b5b808211156200021b576000815560010162000220565b6000602082840312156200024957600080fd5b81516001600160a01b03811681146200026157600080fd5b9392505050565b600181811c908216806200027d57607f821691505b6020821081036200029e57634e487b7160e01b600052602260045260246000fd5b50919050565b61250b80620002b46000396000f3fe608060405234801561001057600080fd5b50600436106101a85760003560e01c80637e518ec8116100f9578063bd85b03911610097578063e985e9c511610071578063e985e9c5146103ce578063f23a6e61146103e1578063f242432a14610400578063f2fde38b1461041357600080fd5b8063bd85b03914610372578063cd53d08e14610392578063d2a6b51a146103bb57600080fd5b806395d89b41116100d357806395d89b411461030c578063a22cb46514610314578063b48ab8b614610327578063bc197c811461033a57600080fd5b80637e518ec8146102c75780638456cb59146102da5780638da5cb5b146102e257600080fd5b80633f4ba83a116101665780635c975abb116101405780635c975abb1461028e578063696c9c0a14610299578063715018a6146102ac578063731133e9146102b457600080fd5b80633f4ba83a146102535780634e1273f41461025b5780635bb478081461027b57600080fd5b8062fdd58e146101ad57806301ffc9a7146101d357806306fdde03146101f65780630e89341c1461020b5780632693ebf21461021e5780632eb2c2d61461023e575b600080fd5b6101c06101bb36600461198b565b610426565b6040519081526020015b60405180910390f35b6101e66101e13660046119cd565b6104c0565b60405190151581526020016101ca565b6101fe610510565b6040516101ca9190611a37565b6101fe610219366004611a4a565b61059e565b6101c061022c366004611a4a565b60086020526000908152604090205481565b61025161024c366004611bb6565b610632565b005b6102516106c9565b61026e610269366004611c63565b6106fd565b6040516101ca9190611d6a565b610251610289366004611d7d565b610826565b60035460ff166101e6565b6101c06102a7366004611d9a565b610878565b61025161093c565b6102516102c2366004611e22565b610976565b6102516102d5366004611e84565b6109ec565b610251610a22565b60035461010090046001600160a01b03165b6040516001600160a01b0390911681526020016101ca565b6101fe610a54565b610251610322366004611ecc565b610a61565b610251610335366004611f0a565b610a70565b610359610348366004611bb6565b63bc197c8160e01b95945050505050565b6040516001600160e01b031990911681526020016101ca565b6101c0610380366004611a4a565b60009081526008602052604090205490565b6102f46103a0366004611a4a565b6007602052600090815260409020546001600160a01b031681565b6102516103c9366004611f98565b610b9b565b6101e66103dc366004611fdd565b610c52565b6103596103ef36600461200b565b63f23a6e6160e01b95945050505050565b61025161040e36600461200b565b610d40565b610251610421366004611d7d565b610dc7565b60006001600160a01b0383166104975760405162461bcd60e51b815260206004820152602b60248201527f455243313135353a2062616c616e636520717565727920666f7220746865207a60448201526a65726f206164647265737360a81b60648201526084015b60405180910390fd5b506000818152602081815260408083206001600160a01b03861684529091529020545b92915050565b60006001600160e01b03198216636cdb3d1360e11b14806104f157506001600160e01b031982166303a24d0760e21b145b806104ba57506301ffc9a760e01b6001600160e01b03198316146104ba565b6009805461051d90612073565b80601f016020809104026020016040519081016040528092919081815260200182805461054990612073565b80156105965780601f1061056b57610100808354040283529160200191610596565b820191906000526020600020905b81548152906001019060200180831161057957829003601f168201915b505050505081565b6060600280546105ad90612073565b80601f01602080910402602001604051908101604052809291908181526020018280546105d990612073565b80156106265780601f106105fb57610100808354040283529160200191610626565b820191906000526020600020905b81548152906001019060200180831161060957829003601f168201915b50505050509050919050565b6001600160a01b03851633148061064e575061064e8533610c52565b6106b55760405162461bcd60e51b815260206004820152603260248201527f455243313135353a207472616e736665722063616c6c6572206973206e6f74206044820152711bdddb995c881b9bdc88185c1c1c9bdd995960721b606482015260840161048e565b6106c28585858585610e65565b5050505050565b6006546001600160a01b031633146106f35760405162461bcd60e51b815260040161048e906120ad565b6106fb61100f565b565b606081518351146107625760405162461bcd60e51b815260206004820152602960248201527f455243313135353a206163636f756e747320616e6420696473206c656e677468604482015268040dad2e6dac2e8c6d60bb1b606482015260840161048e565b600083516001600160401b0381111561077d5761077d611a63565b6040519080825280602002602001820160405280156107a6578160200160208202803683370190505b50905060005b845181101561081e576107f18582815181106107ca576107ca6120e2565b60200260200101518583815181106107e4576107e46120e2565b6020026020010151610426565b828281518110610803576108036120e2565b60209081029190910101526108178161210e565b90506107ac565b509392505050565b6003546001600160a01b036101009091041633146108565760405162461bcd60e51b815260040161048e90612127565b600680546001600160a01b0319166001600160a01b0392909216919091179055565b6006546000906001600160a01b031633146108a55760405162461bcd60e51b815260040161048e906120ad565b60006108b060045490565b90506108c0600480546001019055565b60008181526007602090815260409182902080546001600160a01b031916331790558151601f86018290048202810182019092528482526109219188918491899189908990819084018382808284376000920191909152506110a292505050565b60008181526008602052604090208590559050949350505050565b6003546001600160a01b0361010090910416331461096c5760405162461bcd60e51b815260040161048e90612127565b6106fb6000611178565b60008381526007602052604090205483906001600160a01b031633146109ae5760405162461bcd60e51b815260040161048e9061215c565b6109ba858585856110a2565b6000848152600860205260409020546109d390846111d2565b6000948552600860205260409094209390935550505050565b6006546001600160a01b03163314610a165760405162461bcd60e51b815260040161048e906120ad565b610a1f816111e5565b50565b6006546001600160a01b03163314610a4c5760405162461bcd60e51b815260040161048e906120ad565b6106fb6111f8565b600a805461051d90612073565b610a6c338383611273565b5050565b60005b8351811015610b88576000848281518110610a9057610a906120e2565b602090810291909101810151600081815260079092526040909120549091506001600160a01b03163314610b1e5760405162461bcd60e51b815260206004820152602f60248201527f455243313135355472616461626c652362617463684d696e743a204f4e4c595f60448201526e10d491505513d497d0531313d5d151608a1b606482015260840161048e565b6000848381518110610b3257610b326120e2565b60200260200101519050610b628160086000858152602001908152602001600020546111d290919063ffffffff16565b600092835260086020526040909220919091555080610b808161210e565b915050610a73565b50610b9584848484611353565b50505050565b6001600160a01b038216610c065760405162461bcd60e51b815260206004820152602c60248201527f455243313135355472616461626c652373657443726561746f723a20494e564160448201526b2624a22fa0a2222922a9a99760a11b606482015260840161048e565b60005b8151811015610c4d576000828281518110610c2657610c266120e2565b60200260200101519050610c3a84826114ad565b5080610c458161210e565b915050610c09565b505050565b60055460405163c455279160e01b81526001600160a01b03848116600483015260009281169190841690829063c455279190602401602060405180830381865afa158015610ca4573d6000803e3d6000fd5b505050506040513d601f19601f82011682018060405250810190610cc891906121ad565b6001600160a01b031603610ce05760019150506104ba565b6001600160a01b03831673207fa8df3a17d96ca7ea4f2893fcdcb78a30410103610d0e5760019150506104ba565b6001600160a01b0380851660009081526001602090815260408083209387168352929052205460ff165b949350505050565b6001600160a01b038516331480610d5c5750610d5c8533610c52565b610dba5760405162461bcd60e51b815260206004820152602960248201527f455243313135353a2063616c6c6572206973206e6f74206f776e6572206e6f7260448201526808185c1c1c9bdd995960ba1b606482015260840161048e565b6106c28585858585611514565b6003546001600160a01b03610100909104163314610df75760405162461bcd60e51b815260040161048e90612127565b6001600160a01b038116610e5c5760405162461bcd60e51b815260206004820152602660248201527f4f776e61626c653a206e6577206f776e657220697320746865207a65726f206160448201526564647265737360d01b606482015260840161048e565b610a1f81611178565b8151835114610e865760405162461bcd60e51b815260040161048e906121ca565b6001600160a01b038416610eac5760405162461bcd60e51b815260040161048e90612212565b33610ebb818787878787611631565b60005b8451811015610fa1576000858281518110610edb57610edb6120e2565b602002602001015190506000858381518110610ef957610ef96120e2565b602090810291909101810151600084815280835260408082206001600160a01b038e168352909352919091205490915081811015610f495760405162461bcd60e51b815260040161048e90612257565b6000838152602081815260408083206001600160a01b038e8116855292528083208585039055908b16825281208054849290610f869084906122a1565b9250508190555050505080610f9a9061210e565b9050610ebe565b50846001600160a01b0316866001600160a01b0316826001600160a01b03167f4a39dc06d4c0dbc64b70af90fd698a233a518aa5d07e595d983b8c0526c8f7fb8787604051610ff19291906122b9565b60405180910390a461100781878787878761167c565b505050505050565b60035460ff166110585760405162461bcd60e51b815260206004820152601460248201527314185d5cd8589b194e881b9bdd081c185d5cd95960621b604482015260640161048e565b6003805460ff191690557f5db9ee0a495bf2e6ff9c91a7834c1ba4fdd244a5e8aa4e537bd38aeae4b073aa335b6040516001600160a01b03909116815260200160405180910390a1565b6001600160a01b0384166110c85760405162461bcd60e51b815260040161048e906122e7565b336110e8816000876110d9886117d7565b6110e2886117d7565b87611631565b6000848152602081815260408083206001600160a01b0389168452909152812080548592906111189084906122a1565b909155505060408051858152602081018590526001600160a01b0380881692600092918516917fc3d58168c5ae7397731d063d5bbf3d657854427343f4c083240f7aacaa2d0f62910160405180910390a46106c281600087878787611822565b600380546001600160a01b03838116610100818102610100600160a81b031985161790945560405193909204169182907f8be0079c531659141344cd1fd0a4f28419497f9722a3daafe3b4186f6b6457e090600090a35050565b60006111de82846122a1565b9392505050565b8051610a6c9060029060208401906118dd565b60035460ff161561123e5760405162461bcd60e51b815260206004820152601060248201526f14185d5cd8589b194e881c185d5cd95960821b604482015260640161048e565b6003805460ff191660011790557f62e78cea01bee320cd4e420270b5ea74000d11b0c9f74754ebdbfc544b05a2586110853390565b816001600160a01b0316836001600160a01b0316036112e65760405162461bcd60e51b815260206004820152602960248201527f455243313135353a2073657474696e6720617070726f76616c20737461747573604482015268103337b91039b2b63360b91b606482015260840161048e565b6001600160a01b03838116600081815260016020908152604080832094871680845294825291829020805460ff191686151590811790915591519182527f17307eab39ab6107e8899845ad3d59bd9653f200f220920489ca2b5937696c31910160405180910390a3505050565b6001600160a01b0384166113795760405162461bcd60e51b815260040161048e906122e7565b815183511461139a5760405162461bcd60e51b815260040161048e906121ca565b336113aa81600087878787611631565b60005b8451811015611445578381815181106113c8576113c86120e2565b60200260200101516000808784815181106113e5576113e56120e2565b602002602001015181526020019081526020016000206000886001600160a01b03166001600160a01b03168152602001908152602001600020600082825461142d91906122a1565b9091555081905061143d8161210e565b9150506113ad565b50846001600160a01b031660006001600160a01b0316826001600160a01b03167f4a39dc06d4c0dbc64b70af90fd698a233a518aa5d07e595d983b8c0526c8f7fb87876040516114969291906122b9565b60405180910390a46106c28160008787878761167c565b60008181526007602052604090205481906001600160a01b031633146114e55760405162461bcd60e51b815260040161048e9061215c565b50600090815260076020526040902080546001600160a01b0319166001600160a01b0392909216919091179055565b6001600160a01b03841661153a5760405162461bcd60e51b815260040161048e90612212565b3361154a8187876110d9886117d7565b6000848152602081815260408083206001600160a01b038a1684529091529020548381101561158b5760405162461bcd60e51b815260040161048e90612257565b6000858152602081815260408083206001600160a01b038b81168552925280832087850390559088168252812080548692906115c89084906122a1565b909155505060408051868152602081018690526001600160a01b03808916928a821692918616917fc3d58168c5ae7397731d063d5bbf3d657854427343f4c083240f7aacaa2d0f62910160405180910390a4611628828888888888611822565b50505050505050565b60035460ff16156116775760405162461bcd60e51b815260206004820152601060248201526f14185d5cd8589b194e881c185d5cd95960821b604482015260640161048e565b611007565b6001600160a01b0384163b156110075760405163bc197c8160e01b81526001600160a01b0385169063bc197c81906116c09089908990889088908890600401612328565b6020604051808303816000875af19250505080156116fb575060408051601f3d908101601f191682019092526116f891810190612386565b60015b6117a7576117076123a3565b806308c379a003611740575061171b6123bf565b806117265750611742565b8060405162461bcd60e51b815260040161048e9190611a37565b505b60405162461bcd60e51b815260206004820152603460248201527f455243313135353a207472616e7366657220746f206e6f6e20455243313135356044820152732932b1b2b4bb32b91034b6b83632b6b2b73a32b960611b606482015260840161048e565b6001600160e01b0319811663bc197c8160e01b146116285760405162461bcd60e51b815260040161048e90612448565b60408051600180825281830190925260609160009190602080830190803683370190505090508281600081518110611811576118116120e2565b602090810291909101015292915050565b6001600160a01b0384163b156110075760405163f23a6e6160e01b81526001600160a01b0385169063f23a6e61906118669089908990889088908890600401612490565b6020604051808303816000875af19250505080156118a1575060408051601f3d908101601f1916820190925261189e91810190612386565b60015b6118ad576117076123a3565b6001600160e01b0319811663f23a6e6160e01b146116285760405162461bcd60e51b815260040161048e90612448565b8280546118e990612073565b90600052602060002090601f01602090048101928261190b5760008555611951565b82601f1061192457805160ff1916838001178555611951565b82800160010185558215611951579182015b82811115611951578251825591602001919060010190611936565b5061195d929150611961565b5090565b5b8082111561195d5760008155600101611962565b6001600160a01b0381168114610a1f57600080fd5b6000806040838503121561199e57600080fd5b82356119a981611976565b946020939093013593505050565b6001600160e01b031981168114610a1f57600080fd5b6000602082840312156119df57600080fd5b81356111de816119b7565b6000815180845260005b81811015611a10576020818501810151868301820152016119f4565b81811115611a22576000602083870101525b50601f01601f19169290920160200192915050565b6020815260006111de60208301846119ea565b600060208284031215611a5c57600080fd5b5035919050565b634e487b7160e01b600052604160045260246000fd5b601f8201601f191681016001600160401b0381118282101715611a9e57611a9e611a63565b6040525050565b60006001600160401b03821115611abe57611abe611a63565b5060051b60200190565b600082601f830112611ad957600080fd5b81356020611ae682611aa5565b604051611af38282611a79565b83815260059390931b8501820192828101915086841115611b1357600080fd5b8286015b84811015611b2e5780358352918301918301611b17565b509695505050505050565b60006001600160401b03831115611b5257611b52611a63565b604051611b69601f8501601f191660200182611a79565b809150838152848484011115611b7e57600080fd5b83836020830137600060208583010152509392505050565b600082601f830112611ba757600080fd5b6111de83833560208501611b39565b600080600080600060a08688031215611bce57600080fd5b8535611bd981611976565b94506020860135611be981611976565b935060408601356001600160401b0380821115611c0557600080fd5b611c1189838a01611ac8565b94506060880135915080821115611c2757600080fd5b611c3389838a01611ac8565b93506080880135915080821115611c4957600080fd5b50611c5688828901611b96565b9150509295509295909350565b60008060408385031215611c7657600080fd5b82356001600160401b0380821115611c8d57600080fd5b818501915085601f830112611ca157600080fd5b81356020611cae82611aa5565b604051611cbb8282611a79565b83815260059390931b8501820192828101915089841115611cdb57600080fd5b948201945b83861015611d02578535611cf381611976565b82529482019490820190611ce0565b96505086013592505080821115611d1857600080fd5b50611d2585828601611ac8565b9150509250929050565b600081518084526020808501945080840160005b83811015611d5f57815187529582019590820190600101611d43565b509495945050505050565b6020815260006111de6020830184611d2f565b600060208284031215611d8f57600080fd5b81356111de81611976565b60008060008060608587031215611db057600080fd5b8435611dbb81611976565b93506020850135925060408501356001600160401b0380821115611dde57600080fd5b818701915087601f830112611df257600080fd5b813581811115611e0157600080fd5b886020828501011115611e1357600080fd5b95989497505060200194505050565b60008060008060808587031215611e3857600080fd5b8435611e4381611976565b9350602085013592506040850135915060608501356001600160401b03811115611e6c57600080fd5b611e7887828801611b96565b91505092959194509250565b600060208284031215611e9657600080fd5b81356001600160401b03811115611eac57600080fd5b8201601f81018413611ebd57600080fd5b610d3884823560208401611b39565b60008060408385031215611edf57600080fd5b8235611eea81611976565b915060208301358015158114611eff57600080fd5b809150509250929050565b60008060008060808587031215611f2057600080fd5b8435611f2b81611976565b935060208501356001600160401b0380821115611f4757600080fd5b611f5388838901611ac8565b94506040870135915080821115611f6957600080fd5b611f7588838901611ac8565b93506060870135915080821115611f8b57600080fd5b50611e7887828801611b96565b60008060408385031215611fab57600080fd5b8235611fb681611976565b915060208301356001600160401b03811115611fd157600080fd5b611d2585828601611ac8565b60008060408385031215611ff057600080fd5b8235611ffb81611976565b91506020830135611eff81611976565b600080600080600060a0868803121561202357600080fd5b853561202e81611976565b9450602086013561203e81611976565b9350604086013592506060860135915060808601356001600160401b0381111561206757600080fd5b611c5688828901611b96565b600181811c9082168061208757607f821691505b6020821081036120a757634e487b7160e01b600052602260045260246000fd5b50919050565b6020808252818101527f4f6e6c7920466163746f72792063616e2063616c6c20746865206d6574686f64604082015260600190565b634e487b7160e01b600052603260045260246000fd5b634e487b7160e01b600052601160045260246000fd5b600060018201612120576121206120f8565b5060010190565b6020808252818101527f4f776e61626c653a2063616c6c6572206973206e6f7420746865206f776e6572604082015260600190565b60208082526031908201527f455243313135355472616461626c652363726561746f724f6e6c793a204f4e4c6040820152701657d0d491505513d497d0531313d5d151607a1b606082015260800190565b6000602082840312156121bf57600080fd5b81516111de81611976565b60208082526028908201527f455243313135353a2069647320616e6420616d6f756e7473206c656e677468206040820152670dad2e6dac2e8c6d60c31b606082015260800190565b60208082526025908201527f455243313135353a207472616e7366657220746f20746865207a65726f206164604082015264647265737360d81b606082015260800190565b6020808252602a908201527f455243313135353a20696e73756666696369656e742062616c616e636520666f60408201526939103a3930b739b332b960b11b606082015260800190565b600082198211156122b4576122b46120f8565b500190565b6040815260006122cc6040830185611d2f565b82810360208401526122de8185611d2f565b95945050505050565b60208082526021908201527f455243313135353a206d696e7420746f20746865207a65726f206164647265736040820152607360f81b606082015260800190565b6001600160a01b0386811682528516602082015260a06040820181905260009061235490830186611d2f565b82810360608401526123668186611d2f565b9050828103608084015261237a81856119ea565b98975050505050505050565b60006020828403121561239857600080fd5b81516111de816119b7565b600060033d11156123bc5760046000803e5060005160e01c5b90565b600060443d10156123cd5790565b6040516003193d81016004833e81513d6001600160401b0381602484011181841117156123fc57505050505090565b82850191508151818111156124145750505050505090565b843d870101602082850101111561242e5750505050505090565b61243d60208286010187611a79565b509095945050505050565b60208082526028908201527f455243313135353a204552433131353552656365697665722072656a656374656040820152676420746f6b656e7360c01b606082015260800190565b6001600160a01b03868116825285166020820152604081018490526060810183905260a0608082018190526000906124ca908301846119ea565b97965050505050505056fea2646970667358221220260ffe600e996ce600d687aadcaabc09bc068827dfda9323e945fc437a35a09664736f6c634300080d0033",
  "linkReferences": {},
  "deployedLinkReferences": {}
}