{
  "_format": "hh-sol-artifact-1",
  "contractName": "GoFactory",
  "sourceName": "contracts/GoFactory.sol",
  "abi": [
    {
      "inputs": [
        {
          "internalType": "address",
          "name": "_proxyRegistryAddress",
          "type": "address"
        }
      ],
      "stateMutability": "nonpayable",
      "type": "constructor"
    },
    {
      "anonymous": false,
      "inputs": [
        {
          "indexed": true,
          "internalType": "address",
          "name": "previousOwner",
          "type": "address"
        },
        {
          "indexed": true,
          "internalType": "address",
          "name": "newOwner",
          "type": "address"
        }
      ],
      "name": "OwnershipTransferred",
      "type": "event"
    },
    {
      "inputs": [
        {
          "internalType": "address",
          "name": "_owner",
          "type": "address"
        },
        {
          "internalType": "uint256",
          "name": "_optionId",
          "type": "uint256"
        }
      ],
      "name": "balanceOf",
      "outputs": [
        {
          "internalType": "uint256",
          "name": "",
          "type": "uint256"
        }
      ],
      "stateMutability": "view",
      "type": "function"
    },
    {
      "inputs": [
        {
          "internalType": "uint256",
          "name": "_optionId",
          "type": "uint256"
        },
        {
          "internalType": "uint256",
          "name": "_amount",
          "type": "uint256"
        }
      ],
      "name": "canMint",
      "outputs": [
        {
          "internalType": "bool",
          "name": "",
          "type": "bool"
        }
      ],
      "stateMutability": "view",
      "type": "function"
    },
    {
      "inputs": [
        {
          "internalType": "address",
          "name": "_owner",
          "type": "address"
        },
        {
          "internalType": "address",
          "name": "_operator",
          "type": "address"
        }
      ],
      "name": "isApprovedForAll",
      "outputs": [
        {
          "internalType": "bool",
          "name": "",
          "type": "bool"
        }
      ],
      "stateMutability": "view",
      "type": "function"
    },
    {
      "inputs": [
        {
          "internalType": "uint256",
          "name": "_optionId",
          "type": "uint256"
        },
        {
          "internalType": "address",
          "name": "_toAddress",
          "type": "address"
        },
        {
          "internalType": "uint256",
          "name": "_amount",
          "type": "uint256"
        },
        {
          "internalType": "bytes",
          "name": "_data",
          "type": "bytes"
        }
      ],
      "name": "mint",
      "outputs": [],
      "stateMutability": "nonpayable",
      "type": "function"
    },
    {
      "inputs": [],
      "name": "nftAddress",
      "outputs": [
        {
          "internalType": "address",
          "name": "",
          "type": "address"
        }
      ],
      "stateMutability": "view",
      "type": "function"
    },
    {
      "inputs": [
        {
          "internalType": "uint256",
          "name": "",
          "type": "uint256"
        }
      ],
      "name": "optionToTokenID",
      "outputs": [
        {
          "internalType": "uint256",
          "name": "",
          "type": "uint256"
        }
      ],
      "stateMutability": "view",
      "type": "function"
    },
    {
      "inputs": [],
      "name": "owner",
      "outputs": [
        {
          "internalType": "address",
          "name": "",
          "type": "address"
        }
      ],
      "stateMutability": "view",
      "type": "function"
    },
    {
      "inputs": [],
      "name": "proxyRegistryAddress",
      "outputs": [
        {
          "internalType": "address",
          "name": "",
          "type": "address"
        }
      ],
      "stateMutability": "view",
      "type": "function"
    },
    {
      "inputs": [],
      "name": "renounceOwnership",
      "outputs": [],
      "stateMutability": "nonpayable",
      "type": "function"
    },
    {
      "inputs": [
        {
          "internalType": "address",
          "name": "_to",
          "type": "address"
        },
        {
          "internalType": "uint256",
          "name": "_optionId",
          "type": "uint256"
        },
        {
          "internalType": "uint256",
          "name": "_amount",
          "type": "uint256"
        },
        {
          "internalType": "bytes",
          "name": "_data",
          "type": "bytes"
        }
      ],
      "name": "safeTransferFrom",
      "outputs": [],
      "stateMutability": "nonpayable",
      "type": "function"
    },
    {
      "inputs": [
        {
          "internalType": "address",
          "name": "_nftAddress",
          "type": "address"
        }
      ],
      "name": "setNftAddress",
      "outputs": [],
      "stateMutability": "nonpayable",
      "type": "function"
    },
    {
      "inputs": [
        {
          "internalType": "address",
          "name": "newOwner",
          "type": "address"
        }
      ],
      "name": "transferOwnership",
      "outputs": [],
      "stateMutability": "nonpayable",
      "type": "function"
    }
  ],
  "bytecode": "0x608060405234801561001057600080fd5b50604051610c82380380610c8283398101604081905261002f916100b1565b61003833610061565b60018055600280546001600160a01b0319166001600160a01b03929092169190911790556100e1565b600080546001600160a01b038381166001600160a01b0319831681178455604051919092169283917f8be0079c531659141344cd1fd0a4f28419497f9722a3daafe3b4186f6b6457e09190a35050565b6000602082840312156100c357600080fd5b81516001600160a01b03811681146100da57600080fd5b9392505050565b610b92806100f06000396000f3fe608060405234801561001057600080fd5b50600436106100b35760003560e01c80639d144762116100715780639d1447621461015a578063c65f401b1461017a578063c77b66c21461018d578063cd7c0326146101a0578063e985e9c5146101b3578063f2fde38b146101c657600080fd5b8062fdd58e146100b85780630b102d1a146100de57806322e1dea9146100f35780635bf8633a14610116578063715018a6146101415780638da5cb5b14610149575b600080fd5b6100cb6100c636600461084e565b6101d9565b6040519081526020015b60405180910390f35b6100f16100ec36600461087a565b61029e565b005b610106610101366004610897565b6102f3565b60405190151581526020016100d5565b600354610129906001600160a01b031681565b6040516001600160a01b0390911681526020016100d5565b6100f1610318565b6000546001600160a01b0316610129565b6100cb6101683660046108b9565b60046020526000908152604090205481565b6100f161018836600461091b565b61034e565b6100f161019b366004610985565b6103a8565b600254610129906001600160a01b031681565b6101066101c13660046109d2565b610460565b6100f16101d436600461087a565b610498565b60006101e483610533565b6101f057506000610298565b60008281526004602052604081205490819003610212576103e8915050610298565b60035460405163bd85b03960e01b8152600481018390526001600160a01b0390911690600090829063bd85b03990602401602060405180830381865afa158015610260573d6000803e3d6000fd5b505050506040513d601f19601f820116820180604052508101906102849190610a0b565b90506102926103e88261060d565b93505050505b92915050565b6000546001600160a01b031633146102d15760405162461bcd60e51b81526004016102c890610a24565b60405180910390fd5b600380546001600160a01b0319166001600160a01b0392909216919091179055565b60006103113384600281111561030b5761030b610a59565b84610619565b9392505050565b6000546001600160a01b031633146103425760405162461bcd60e51b81526004016102c890610a24565b61034c6000610652565b565b6103a184600281111561036357610363610a59565b868585858080601f0160208091040260200160405190810160405280939291908181526020018383808284376000920191909152506106a292505050565b5050505050565b6002600154036103fa5760405162461bcd60e51b815260206004820152601f60248201527f5265656e7472616e637947756172643a207265656e7472616e742063616c6c0060448201526064016102c8565b600260018190555061045585600281111561041757610417610a59565b858585858080601f0160208091040260200160405190810160405280939291908181526020018383808284376000920191909152506106a292505050565b505060018055505050565b6000826001600160a01b031661047e6000546001600160a01b031690565b6001600160a01b0316148015610311575061031182610533565b6000546001600160a01b031633146104c25760405162461bcd60e51b81526004016102c890610a24565b6001600160a01b0381166105275760405162461bcd60e51b815260206004820152602660248201527f4f776e61626c653a206e6577206f776e657220697320746865207a65726f206160448201526564647265737360d01b60648201526084016102c8565b61053081610652565b50565b6002546000906001600160a01b039081169083166105596000546001600160a01b031690565b6001600160a01b031614806103115750826001600160a01b0316816001600160a01b031663c45527916105946000546001600160a01b031690565b6040516001600160e01b031960e084901b1681526001600160a01b039091166004820152602401602060405180830381865afa1580156105d8573d6000803e3d6000fd5b505050506040513d601f19601f820116820180604052508101906105fc9190610a6f565b6001600160a01b0316149392505050565b60006103118284610a8c565b60008083600281111561062e5761062e610a59565b905060008311801561064957508261064686836101d9565b10155b95945050505050565b600080546001600160a01b038381166001600160a01b0319831681178455604051919092169283917f8be0079c531659141344cd1fd0a4f28419497f9722a3daafe3b4186f6b6457e09190a35050565b6106ad338584610619565b6107035760405162461bcd60e51b815260206004820152602160248201527f4d79466163746f7279235f6d696e743a2043414e4e4f545f4d494e545f4d4f526044820152604560f81b60648201526084016102c8565b600084600281111561071757610717610a59565b6003546000828152600460205260408120549293506001600160a01b0390911691908190036107cb576040516334b64e0560e11b81526001600160a01b0383169063696c9c0a9061077090899089908990600401610afe565b6020604051808303816000875af115801561078f573d6000803e3d6000fd5b505050506040513d601f19601f820116820180604052508101906107b39190610a0b565b60008481526004602052604090208190559050610830565b60405163731133e960e01b81526001600160a01b0383169063731133e9906107fd90899085908a908a90600401610b25565b600060405180830381600087803b15801561081757600080fd5b505af115801561082b573d6000803e3d6000fd5b505050505b50505050505050565b6001600160a01b038116811461053057600080fd5b6000806040838503121561086157600080fd5b823561086c81610839565b946020939093013593505050565b60006020828403121561088c57600080fd5b813561031181610839565b600080604083850312156108aa57600080fd5b50508035926020909101359150565b6000602082840312156108cb57600080fd5b5035919050565b60008083601f8401126108e457600080fd5b50813567ffffffffffffffff8111156108fc57600080fd5b60208301915083602082850101111561091457600080fd5b9250929050565b60008060008060006080868803121561093357600080fd5b853561093e81610839565b94506020860135935060408601359250606086013567ffffffffffffffff81111561096857600080fd5b610974888289016108d2565b969995985093965092949392505050565b60008060008060006080868803121561099d57600080fd5b8535945060208601356109af81610839565b935060408601359250606086013567ffffffffffffffff81111561096857600080fd5b600080604083850312156109e557600080fd5b82356109f081610839565b91506020830135610a0081610839565b809150509250929050565b600060208284031215610a1d57600080fd5b5051919050565b6020808252818101527f4f776e61626c653a2063616c6c6572206973206e6f7420746865206f776e6572604082015260600190565b634e487b7160e01b600052602160045260246000fd5b600060208284031215610a8157600080fd5b815161031181610839565b600082821015610aac57634e487b7160e01b600052601160045260246000fd5b500390565b6000815180845260005b81811015610ad757602081850181015186830182015201610abb565b81811115610ae9576000602083870101525b50601f01601f19169290920160200192915050565b60018060a01b03841681528260208201526060604082015260006106496060830184610ab1565b60018060a01b0385168152836020820152826040820152608060608201526000610b526080830184610ab1565b969550505050505056fea264697066735822122079fd6041cd1e52c0d9d2c3447cf3c015a322d6e7c3a31e2452ab5587a1e59c0164736f6c634300080d0033",
  "linkReferences": {},
  "deployedLinkReferences": {}
}