{
  "contractName": "BasicToken",
  "abi": [
    {
      "inputs": [
        {
          "internalType": "string",
          "name": "_name",
          "type": "string"
        },
        {
          "internalType": "string",
          "name": "_symbol",
          "type": "string"
        }
      ],
      "stateMutability": "nonpayable",
      "type": "constructor"
    },
    {
      "anonymous": false,
      "inputs": [
        {
          "indexed": true,
          "internalType": "address",
          "name": "account",
          "type": "address"
        },
        {
          "indexed": true,
          "internalType": "address",
          "name": "operator",
          "type": "address"
        },
        {
          "indexed": false,
          "internalType": "bool",
          "name": "approved",
          "type": "bool"
        }
      ],
      "name": "ApprovalForAll",
      "type": "event"
    },
    {
      "anonymous": false,
      "inputs": [
        {
          "indexed": true,
          "internalType": "address",
          "name": "previousOwner",
          "type": "address"
        },
        {
          "indexed": true,
          "internalType": "address",
          "name": "newOwner",
          "type": "address"
        }
      ],
      "name": "OwnershipTransferred",
      "type": "event"
    },
    {
      "anonymous": false,
      "inputs": [
        {
          "indexed": false,
          "internalType": "address",
          "name": "account",
          "type": "address"
        }
      ],
      "name": "Paused",
      "type": "event"
    },
    {
      "anonymous": false,
      "inputs": [
        {
          "indexed": true,
          "internalType": "address",
          "name": "operator",
          "type": "address"
        },
        {
          "indexed": true,
          "internalType": "address",
          "name": "from",
          "type": "address"
        },
        {
          "indexed": true,
          "internalType": "address",
          "name": "to",
          "type": "address"
        },
        {
          "indexed": false,
          "internalType": "uint256[]",
          "name": "ids",
          "type": "uint256[]"
        },
        {
          "indexed": false,
          "internalType": "uint256[]",
          "name": "values",
          "type": "uint256[]"
        }
      ],
      "name": "TransferBatch",
      "type": "event"
    },
    {
      "anonymous": false,
      "inputs": [
        {
          "indexed": true,
          "internalType": "address",
          "name": "operator",
          "type": "address"
        },
        {
          "indexed": true,
          "internalType": "address",
          "name": "from",
          "type": "address"
        },
        {
          "indexed": true,
          "internalType": "address",
          "name": "to",
          "type": "address"
        },
        {
          "indexed": false,
          "internalType": "uint256",
          "name": "id",
          "type": "uint256"
        },
        {
          "indexed": false,
          "internalType": "uint256",
          "name": "value",
          "type": "uint256"
        }
      ],
      "name": "TransferSingle",
      "type": "event"
    },
    {
      "anonymous": false,
      "inputs": [
        {
          "indexed": false,
          "internalType": "string",
          "name": "value",
          "type": "string"
        },
        {
          "indexed": true,
          "internalType": "uint256",
          "name": "id",
          "type": "uint256"
        }
      ],
      "name": "URI",
      "type": "event"
    },
    {
      "anonymous": false,
      "inputs": [
        {
          "indexed": false,
          "internalType": "address",
          "name": "account",
          "type": "address"
        }
      ],
      "name": "Unpaused",
      "type": "event"
    },
    {
      "inputs": [
        {
          "internalType": "address",
          "name": "account",
          "type": "address"
        },
        {
          "internalType": "uint256",
          "name": "id",
          "type": "uint256"
        }
      ],
      "name": "balanceOf",
      "outputs": [
        {
          "internalType": "uint256",
          "name": "",
          "type": "uint256"
        }
      ],
      "stateMutability": "view",
      "type": "function",
      "constant": true
    },
    {
      "inputs": [
        {
          "internalType": "address[]",
          "name": "accounts",
          "type": "address[]"
        },
        {
          "internalType": "uint256[]",
          "name": "ids",
          "type": "uint256[]"
        }
      ],
      "name": "balanceOfBatch",
      "outputs": [
        {
          "internalType": "uint256[]",
          "name": "",
          "type": "uint256[]"
        }
      ],
      "stateMutability": "view",
      "type": "function",
      "constant": true
    },
    {
      "inputs": [
        {
          "internalType": "uint256",
          "name": "",
          "type": "uint256"
        }
      ],
      "name": "creators",
      "outputs": [
        {
          "internalType": "address",
          "name": "",
          "type": "address"
        }
      ],
      "stateMutability": "view",
      "type": "function",
      "constant": true
    },
    {
      "inputs": [],
      "name": "name",
      "outputs": [
        {
          "internalType": "string",
          "name": "",
          "type": "string"
        }
      ],
      "stateMutability": "view",
      "type": "function",
      "constant": true
    },
    {
      "inputs": [],
      "name": "owner",
      "outputs": [
        {
          "internalType": "address",
          "name": "",
          "type": "address"
        }
      ],
      "stateMutability": "view",
      "type": "function",
      "constant": true
    },
    {
      "inputs": [],
      "name": "paused",
      "outputs": [
        {
          "internalType": "bool",
          "name": "",
          "type": "bool"
        }
      ],
      "stateMutability": "view",
      "type": "function",
      "constant": true
    },
    {
      "inputs": [],
      "name": "renounceOwnership",
      "outputs": [],
      "stateMutability": "nonpayable",
      "type": "function"
    },
    {
      "inputs": [
        {
          "internalType": "address",
          "name": "from",
          "type": "address"
        },
        {
          "internalType": "address",
          "name": "to",
          "type": "address"
        },
        {
          "internalType": "uint256[]",
          "name": "ids",
          "type": "uint256[]"
        },
        {
          "internalType": "uint256[]",
          "name": "amounts",
          "type": "uint256[]"
        },
        {
          "internalType": "bytes",
          "name": "data",
          "type": "bytes"
        }
      ],
      "name": "safeBatchTransferFrom",
      "outputs": [],
      "stateMutability": "nonpayable",
      "type": "function"
    },
    {
      "inputs": [
        {
          "internalType": "address",
          "name": "from",
          "type": "address"
        },
        {
          "internalType": "address",
          "name": "to",
          "type": "address"
        },
        {
          "internalType": "uint256",
          "name": "id",
          "type": "uint256"
        },
        {
          "internalType": "uint256",
          "name": "amount",
          "type": "uint256"
        },
        {
          "internalType": "bytes",
          "name": "data",
          "type": "bytes"
        }
      ],
      "name": "safeTransferFrom",
      "outputs": [],
      "stateMutability": "nonpayable",
      "type": "function"
    },
    {
      "inputs": [
        {
          "internalType": "address",
          "name": "operator",
          "type": "address"
        },
        {
          "internalType": "bool",
          "name": "approved",
          "type": "bool"
        }
      ],
      "name": "setApprovalForAll",
      "outputs": [],
      "stateMutability": "nonpayable",
      "type": "function"
    },
    {
      "inputs": [
        {
          "internalType": "bytes4",
          "name": "interfaceId",
          "type": "bytes4"
        }
      ],
      "name": "supportsInterface",
      "outputs": [
        {
          "internalType": "bool",
          "name": "",
          "type": "bool"
        }
      ],
      "stateMutability": "view",
      "type": "function",
      "constant": true
    },
    {
      "inputs": [],
      "name": "symbol",
      "outputs": [
        {
          "internalType": "string",
          "name": "",
          "type": "string"
        }
      ],
      "stateMutability": "view",
      "type": "function",
      "constant": true
    },
    {
      "inputs": [
        {
          "internalType": "uint256",
          "name": "",
          "type": "uint256"
        }
      ],
      "name": "tokenSupply",
      "outputs": [
        {
          "internalType": "uint256",
          "name": "",
          "type": "uint256"
        }
      ],
      "stateMutability": "view",
      "type": "function",
      "constant": true
    },
    {
      "inputs": [
        {
          "internalType": "address",
          "name": "newOwner",
          "type": "address"
        }
      ],
      "name": "transferOwnership",
      "outputs": [],
      "stateMutability": "nonpayable",
      "type": "function"
    },
    {
      "inputs": [
        {
          "internalType": "uint256",
          "name": "",
          "type": "uint256"
        }
      ],
      "name": "uri",
      "outputs": [
        {
          "internalType": "string",
          "name": "",
          "type": "string"
        }
      ],
      "stateMutability": "view",
      "type": "function",
      "constant": true
    },
    {
      "inputs": [
        {
          "internalType": "uint256",
          "name": "_id",
          "type": "uint256"
        }
      ],
      "name": "totalSupply",
      "outputs": [
        {
          "internalType": "uint256",
          "name": "",
          "type": "uint256"
        }
      ],
      "stateMutability": "view",
      "type": "function",
      "constant": true
    },
    {
      "inputs": [
        {
          "internalType": "string",
          "name": "_newBaseMetadataURI",
          "type": "string"
        }
      ],
      "name": "setBaseMetadataURI",
      "outputs": [],
      "stateMutability": "nonpayable",
      "type": "function"
    },
    {
      "inputs": [],
      "name": "pause",
      "outputs": [],
      "stateMutability": "nonpayable",
      "type": "function"
    },
    {
      "inputs": [],
      "name": "unpause",
      "outputs": [],
      "stateMutability": "nonpayable",
      "type": "function"
    },
    {
      "inputs": [
        {
          "internalType": "address",
          "name": "_factory",
          "type": "address"
        }
      ],
      "name": "setFactory",
      "outputs": [],
      "stateMutability": "nonpayable",
      "type": "function"
    },
    {
      "inputs": [
        {
          "internalType": "address",
          "name": "_initialOwner",
          "type": "address"
        },
        {
          "internalType": "uint256",
          "name": "_initialSupply",
          "type": "uint256"
        },
        {
          "internalType": "bytes",
          "name": "_data",
          "type": "bytes"
        }
      ],
      "name": "create",
      "outputs": [
        {
          "internalType": "uint256",
          "name": "",
          "type": "uint256"
        }
      ],
      "stateMutability": "nonpayable",
      "type": "function"
    },
    {
      "inputs": [
        {
          "internalType": "address",
          "name": "_to",
          "type": "address"
        },
        {
          "internalType": "uint256",
          "name": "_id",
          "type": "uint256"
        },
        {
          "internalType": "uint256",
          "name": "_quantity",
          "type": "uint256"
        },
        {
          "internalType": "bytes",
          "name": "_data",
          "type": "bytes"
        }
      ],
      "name": "mint",
      "outputs": [],
      "stateMutability": "nonpayable",
      "type": "function"
    },
    {
      "inputs": [
        {
          "internalType": "address",
          "name": "_to",
          "type": "address"
        },
        {
          "internalType": "uint256[]",
          "name": "_ids",
          "type": "uint256[]"
        },
        {
          "internalType": "uint256[]",
          "name": "_quantities",
          "type": "uint256[]"
        },
        {
          "internalType": "bytes",
          "name": "_data",
          "type": "bytes"
        }
      ],
      "name": "batchMint",
      "outputs": [],
      "stateMutability": "nonpayable",
      "type": "function"
    },
    {
      "inputs": [
        {
          "internalType": "address",
          "name": "_to",
          "type": "address"
        },
        {
          "internalType": "uint256[]",
          "name": "_ids",
          "type": "uint256[]"
        }
      ],
      "name": "setCreator",
      "outputs": [],
      "stateMutability": "nonpayable",
      "type": "function"
    },
    {
      "inputs": [
        {
          "internalType": "address",
          "name": "_owner",
          "type": "address"
        },
        {
          "internalType": "address",
          "name": "_operator",
          "type": "address"
        }
      ],
      "name": "isApprovedForAll",
      "outputs": [
        {
          "internalType": "bool",
          "name": "isOperator",
          "type": "bool"
        }
      ],
      "stateMutability": "view",
      "type": "function",
      "constant": true
    }
  ],
  "bytecode": "0x60806040523480156200001157600080fd5b5060405162002ace38038062002ace8339810160408190526200003491620002bf565b6040805160208101909152600081526200005781640100000000620000bc810204565b506003805460ff191690556200008862000079640100000000620000d5810204565b640100000000620000d9810204565b81516200009d90600990602085019062000133565b508051620000b390600a90602084019062000133565b5050506200037e565b8051620000d190600290602084019062000133565b5050565b3390565b60038054600160a060020a0383811661010081810261010060a860020a031985161790945560405193909204169182907f8be0079c531659141344cd1fd0a4f28419497f9722a3daafe3b4186f6b6457e090600090a35050565b828054620001419062000329565b90600052602060002090601f016020900481019282620001655760008555620001b0565b82601f106200018057805160ff1916838001178555620001b0565b82800160010185558215620001b0579182015b82811115620001b057825182559160200191906001019062000193565b50620001be929150620001c2565b5090565b5b80821115620001be5760008155600101620001c3565b7f4e487b7100000000000000000000000000000000000000000000000000000000600052604160045260246000fd5b600082601f8301126200021a57600080fd5b81516001604060020a0380821115620002375762000237620001d9565b604051601f8301601f19908116603f01168101908282118183101715620002625762000262620001d9565b816040528381526020925086838588010111156200027f57600080fd5b600091505b83821015620002a3578582018301518183018401529082019062000284565b83821115620002b55760008385830101525b9695505050505050565b60008060408385031215620002d357600080fd5b82516001604060020a0380821115620002eb57600080fd5b620002f98683870162000208565b935060208501519150808211156200031057600080fd5b506200031f8582860162000208565b9150509250929050565b6002810460018216806200033e57607f821691505b60208210810362000378577f4e487b7100000000000000000000000000000000000000000000000000000000600052602260045260246000fd5b50919050565b612740806200038e6000396000f3fe608060405234801561001057600080fd5b506004361061018f576000357c010000000000000000000000000000000000000000000000000000000090048063731133e9116100fb578063b48ab8b6116100b4578063d2a6b51a1161008e578063d2a6b51a1461036a578063e985e9c51461037d578063f242432a14610390578063f2fde38b146103a357600080fd5b8063b48ab8b61461030e578063bd85b03914610321578063cd53d08e1461034157600080fd5b8063731133e91461029b5780637e518ec8146102ae5780638456cb59146102c15780638da5cb5b146102c957806395d89b41146102f3578063a22cb465146102fb57600080fd5b80633f4ba83a1161014d5780633f4ba83a1461023a5780634e1273f4146102425780635bb47808146102625780635c975abb14610275578063696c9c0a14610280578063715018a61461029357600080fd5b8062fdd58e1461019457806301ffc9a7146101ba57806306fdde03146101dd5780630e89341c146101f25780632693ebf2146102055780632eb2c2d614610225575b600080fd5b6101a76101a2366004611b4b565b6103b6565b6040519081526020015b60405180910390f35b6101cd6101c8366004611b8d565b610465565b60405190151581526020016101b1565b6101e5610500565b6040516101b19190611bf7565b6101e5610200366004611c0a565b61058e565b6101a7610213366004611c0a565b60086020526000908152604090205481565b610238610233366004611d79565b610622565b005b6102386106c7565b610255610250366004611e27565b610704565b6040516101b19190611f2c565b610238610270366004611f3f565b610845565b60035460ff166101cd565b6101a761028e366004611f5c565b6108a7565b610238610981565b6102386102a9366004611fe5565b6109be565b6102386102bc366004612048565b610a37565b610238610a76565b6003546101009004600160a060020a03165b604051600160a060020a0390911681526020016101b1565b6101e5610ab1565b610238610309366004612091565b610abe565b61023861031c3660046120cf565b610acd565b6101a761032f366004611c0a565b60009081526008602052604090205490565b6102db61034f366004611c0a565b600760205260009081526040902054600160a060020a031681565b61023861037836600461215e565b610c09565b6101cd61038b3660046121a4565b610cd4565b61023861039e3660046121d2565b610ddb565b6102386103b1366004611f3f565b610e79565b6000600160a060020a03831661043c5760405160e560020a62461bcd02815260206004820152602b60248201527f455243313135353a2062616c616e636520717565727920666f7220746865207a60448201527f65726f206164647265737300000000000000000000000000000000000000000060648201526084015b60405180910390fd5b50600081815260208181526040808320600160a060020a03861684529091529020545b92915050565b6000600160e060020a031982167fd9b67a260000000000000000000000000000000000000000000000000000000014806104c85750600160e060020a031982167f0e89341c00000000000000000000000000000000000000000000000000000000145b8061045f57507f01ffc9a700000000000000000000000000000000000000000000000000000000600160e060020a031983161461045f565b6009805461050d9061223b565b80601f01602080910402602001604051908101604052809291908181526020018280546105399061223b565b80156105865780601f1061055b57610100808354040283529160200191610586565b820191906000526020600020905b81548152906001019060200180831161056957829003601f168201915b505050505081565b60606002805461059d9061223b565b80601f01602080910402602001604051908101604052809291908181526020018280546105c99061223b565b80156106165780601f106105eb57610100808354040283529160200191610616565b820191906000526020600020905b8154815290600101906020018083116105f957829003601f168201915b50505050509050919050565b600160a060020a03851633148061063e575061063e8533610cd4565b6106b35760405160e560020a62461bcd02815260206004820152603260248201527f455243313135353a207472616e736665722063616c6c6572206973206e6f742060448201527f6f776e6572206e6f7220617070726f76656400000000000000000000000000006064820152608401610433565b6106c08585858585610f34565b5050505050565b600354600160a060020a036101009091041633146106fa5760405160e560020a62461bcd02815260040161043390612278565b6107026110e7565b565b606081518351146107805760405160e560020a62461bcd02815260206004820152602960248201527f455243313135353a206163636f756e747320616e6420696473206c656e67746860448201527f206d69736d6174636800000000000000000000000000000000000000000000006064820152608401610433565b6000835167ffffffffffffffff81111561079c5761079c611c23565b6040519080825280602002602001820160405280156107c5578160200160208202803683370190505b50905060005b845181101561083d576108108582815181106107e9576107e96122ad565b6020026020010151858381518110610803576108036122ad565b60200260200101516103b6565b828281518110610822576108226122ad565b6020908102919091010152610836816122df565b90506107cb565b509392505050565b600354600160a060020a036101009091041633146108785760405160e560020a62461bcd02815260040161043390612278565b6006805473ffffffffffffffffffffffffffffffffffffffff1916600160a060020a0392909216919091179055565b600354600090600160a060020a036101009091041633146108dd5760405160e560020a62461bcd02815260040161043390612278565b60006108e860045490565b90506108f8600480546001019055565b600081815260076020908152604091829020805473ffffffffffffffffffffffffffffffffffffffff1916331790558151601f860182900482028101820190925284825261096691889184918991899089908190840183828082843760009201919091525061118692505050565b60008181526008602052604090208590559050949350505050565b600354600160a060020a036101009091041633146109b45760405160e560020a62461bcd02815260040161043390612278565b610702600061125f565b6000838152600760205260409020548390600160a060020a031633146109f95760405160e560020a62461bcd028152600401610433906122f8565b610a0585858585611186565b600084815260086020526040902054610a1e90846112c6565b6000948552600860205260409094209390935550505050565b600354600160a060020a03610100909104163314610a6a5760405160e560020a62461bcd02815260040161043390612278565b610a73816112d9565b50565b600354600160a060020a03610100909104163314610aa95760405160e560020a62461bcd02815260040161043390612278565b6107026112ec565b600a805461050d9061223b565b610ac9338383611377565b5050565b60005b8351811015610bf6576000848281518110610aed57610aed6122ad565b60209081029190910181015160008181526007909252604090912054909150600160a060020a03163314610b8c5760405160e560020a62461bcd02815260206004820152602f60248201527f455243313135355472616461626c652362617463684d696e743a204f4e4c595f60448201527f43524541544f525f414c4c4f57454400000000000000000000000000000000006064820152608401610433565b6000848381518110610ba057610ba06122ad565b60200260200101519050610bd08160086000858152602001908152602001600020546112c690919063ffffffff16565b600092835260086020526040909220919091555080610bee816122df565b915050610ad0565b50610c038484848461146e565b50505050565b600160a060020a038216610c885760405160e560020a62461bcd02815260206004820152602c60248201527f455243313135355472616461626c652373657443726561746f723a20494e564160448201527f4c49445f414444524553532e00000000000000000000000000000000000000006064820152608401610433565b60005b8151811015610ccf576000828281518110610ca857610ca86122ad565b60200260200101519050610cbc84826115ce565b5080610cc7816122df565b915050610c8b565b505050565b6005546040517fc4552791000000000000000000000000000000000000000000000000000000008152600160a060020a03848116600483015260009281169190841690829063c455279190602401602060405180830381865afa158015610d3f573d6000803e3d6000fd5b505050506040513d601f19601f82011682018060405250810190610d639190612355565b600160a060020a031603610d7b57600191505061045f565b600160a060020a03831673207fa8df3a17d96ca7ea4f2893fcdcb78a30410103610da957600191505061045f565b600160a060020a0380851660009081526001602090815260408083209387168352929052205460ff165b949350505050565b600160a060020a038516331480610df75750610df78533610cd4565b610e6c5760405160e560020a62461bcd02815260206004820152602960248201527f455243313135353a2063616c6c6572206973206e6f74206f776e6572206e6f7260448201527f20617070726f76656400000000000000000000000000000000000000000000006064820152608401610433565b6106c08585858585611645565b600354600160a060020a03610100909104163314610eac5760405160e560020a62461bcd02815260040161043390612278565b600160a060020a038116610f2b5760405160e560020a62461bcd02815260206004820152602660248201527f4f776e61626c653a206e6577206f776e657220697320746865207a65726f206160448201527f64647265737300000000000000000000000000000000000000000000000000006064820152608401610433565b610a738161125f565b8151835114610f585760405160e560020a62461bcd02815260040161043390612372565b600160a060020a038416610f815760405160e560020a62461bcd028152600401610433906123cf565b33610f90818787878787611768565b60005b8451811015611079576000858281518110610fb057610fb06122ad565b602002602001015190506000858381518110610fce57610fce6122ad565b60209081029190910181015160008481528083526040808220600160a060020a038e1683529093529190912054909150818110156110215760405160e560020a62461bcd0281526004016104339061242c565b600083815260208181526040808320600160a060020a038e8116855292528083208585039055908b1682528120805484929061105e908490612489565b9250508190555050505080611072906122df565b9050610f93565b5084600160a060020a031686600160a060020a031682600160a060020a03167f4a39dc06d4c0dbc64b70af90fd698a233a518aa5d07e595d983b8c0526c8f7fb87876040516110c99291906124a1565b60405180910390a46110df8187878787876117c3565b505050505050565b60035460ff1661113c5760405160e560020a62461bcd02815260206004820152601460248201527f5061757361626c653a206e6f74207061757365640000000000000000000000006044820152606401610433565b6003805460ff191690557f5db9ee0a495bf2e6ff9c91a7834c1ba4fdd244a5e8aa4e537bd38aeae4b073aa335b604051600160a060020a03909116815260200160405180910390a1565b600160a060020a0384166111af5760405160e560020a62461bcd028152600401610433906124cf565b336111cf816000876111c088611962565b6111c988611962565b87611768565b600084815260208181526040808320600160a060020a0389168452909152812080548592906111ff908490612489565b90915550506040805185815260208101859052600160a060020a0380881692600092918516917fc3d58168c5ae7397731d063d5bbf3d657854427343f4c083240f7aacaa2d0f62910160405180910390a46106c0816000878787876119ad565b60038054600160a060020a0383811661010081810274ffffffffffffffffffffffffffffffffffffffff001985161790945560405193909204169182907f8be0079c531659141344cd1fd0a4f28419497f9722a3daafe3b4186f6b6457e090600090a35050565b60006112d28284612489565b9392505050565b8051610ac9906002906020840190611a9d565b60035460ff16156113425760405160e560020a62461bcd02815260206004820152601060248201527f5061757361626c653a20706175736564000000000000000000000000000000006044820152606401610433565b6003805460ff191660011790557f62e78cea01bee320cd4e420270b5ea74000d11b0c9f74754ebdbfc544b05a2586111693390565b81600160a060020a031683600160a060020a0316036114015760405160e560020a62461bcd02815260206004820152602960248201527f455243313135353a2073657474696e6720617070726f76616c2073746174757360448201527f20666f722073656c6600000000000000000000000000000000000000000000006064820152608401610433565b600160a060020a03838116600081815260016020908152604080832094871680845294825291829020805460ff191686151590811790915591519182527f17307eab39ab6107e8899845ad3d59bd9653f200f220920489ca2b5937696c31910160405180910390a3505050565b600160a060020a0384166114975760405160e560020a62461bcd028152600401610433906124cf565b81518351146114bb5760405160e560020a62461bcd02815260040161043390612372565b336114cb81600087878787611768565b60005b8451811015611566578381815181106114e9576114e96122ad565b6020026020010151600080878481518110611506576115066122ad565b60200260200101518152602001908152602001600020600088600160a060020a0316600160a060020a03168152602001908152602001600020600082825461154e9190612489565b9091555081905061155e816122df565b9150506114ce565b5084600160a060020a03166000600160a060020a031682600160a060020a03167f4a39dc06d4c0dbc64b70af90fd698a233a518aa5d07e595d983b8c0526c8f7fb87876040516115b79291906124a1565b60405180910390a46106c0816000878787876117c3565b6000818152600760205260409020548190600160a060020a031633146116095760405160e560020a62461bcd028152600401610433906122f8565b506000908152600760205260409020805473ffffffffffffffffffffffffffffffffffffffff1916600160a060020a0392909216919091179055565b600160a060020a03841661166e5760405160e560020a62461bcd028152600401610433906123cf565b3361167e8187876111c088611962565b600084815260208181526040808320600160a060020a038a168452909152902054838110156116c25760405160e560020a62461bcd0281526004016104339061242c565b600085815260208181526040808320600160a060020a038b81168552925280832087850390559088168252812080548692906116ff908490612489565b90915550506040805186815260208101869052600160a060020a03808916928a821692918616917fc3d58168c5ae7397731d063d5bbf3d657854427343f4c083240f7aacaa2d0f62910160405180910390a461175f8288888888886119ad565b50505050505050565b60035460ff16156117be5760405160e560020a62461bcd02815260206004820152601060248201527f5061757361626c653a20706175736564000000000000000000000000000000006044820152606401610433565b6110df565b600160a060020a0384163b156110df576040517fbc197c81000000000000000000000000000000000000000000000000000000008152600160a060020a0385169063bc197c8190611820908990899088908890889060040161252c565b6020604051808303816000875af192505050801561185b575060408051601f3d908101601f191682019092526118589181019061258a565b60015b611916576118676125a7565b806308c379a0036118a3575061187b6125e0565b8061188657506118a5565b8060405160e560020a62461bcd0281526004016104339190611bf7565b505b60405160e560020a62461bcd02815260206004820152603460248201527f455243313135353a207472616e7366657220746f206e6f6e204552433131353560448201527f526563656976657220696d706c656d656e7465720000000000000000000000006064820152608401610433565b600160e060020a031981167fbc197c81000000000000000000000000000000000000000000000000000000001461175f5760405160e560020a62461bcd0281526004016104339061266a565b6040805160018082528183019092526060916000919060208083019080368337019050509050828160008151811061199c5761199c6122ad565b602090810291909101015292915050565b600160a060020a0384163b156110df576040517ff23a6e61000000000000000000000000000000000000000000000000000000008152600160a060020a0385169063f23a6e6190611a0a90899089908890889088906004016126c7565b6020604051808303816000875af1925050508015611a45575060408051601f3d908101601f19168201909252611a429181019061258a565b60015b611a51576118676125a7565b600160e060020a031981167ff23a6e61000000000000000000000000000000000000000000000000000000001461175f5760405160e560020a62461bcd0281526004016104339061266a565b828054611aa99061223b565b90600052602060002090601f016020900481019282611acb5760008555611b11565b82601f10611ae457805160ff1916838001178555611b11565b82800160010185558215611b11579182015b82811115611b11578251825591602001919060010190611af6565b50611b1d929150611b21565b5090565b5b80821115611b1d5760008155600101611b22565b600160a060020a0381168114610a7357600080fd5b60008060408385031215611b5e57600080fd5b8235611b6981611b36565b946020939093013593505050565b600160e060020a031981168114610a7357600080fd5b600060208284031215611b9f57600080fd5b81356112d281611b77565b6000815180845260005b81811015611bd057602081850181015186830182015201611bb4565b81811115611be2576000602083870101525b50601f01601f19169290920160200192915050565b6020815260006112d26020830184611baa565b600060208284031215611c1c57600080fd5b5035919050565b60e060020a634e487b7102600052604160045260246000fd5b601f8201601f1916810167ffffffffffffffff81118282101715611c6257611c62611c23565b6040525050565b600067ffffffffffffffff821115611c8357611c83611c23565b5060209081020190565b600082601f830112611c9e57600080fd5b81356020611cab82611c69565b604051611cb88282611c3c565b8381529282028501820192828101915086841115611cd557600080fd5b8286015b84811015611cf05780358352918301918301611cd9565b509695505050505050565b600067ffffffffffffffff831115611d1557611d15611c23565b604051611d2c601f8501601f191660200182611c3c565b809150838152848484011115611d4157600080fd5b83836020830137600060208583010152509392505050565b600082601f830112611d6a57600080fd5b6112d283833560208501611cfb565b600080600080600060a08688031215611d9157600080fd5b8535611d9c81611b36565b94506020860135611dac81611b36565b9350604086013567ffffffffffffffff80821115611dc957600080fd5b611dd589838a01611c8d565b94506060880135915080821115611deb57600080fd5b611df789838a01611c8d565b93506080880135915080821115611e0d57600080fd5b50611e1a88828901611d59565b9150509295509295909350565b60008060408385031215611e3a57600080fd5b823567ffffffffffffffff80821115611e5257600080fd5b818501915085601f830112611e6657600080fd5b81356020611e7382611c69565b604051611e808282611c3c565b8381529282028501820192828101915089841115611e9d57600080fd5b948201945b83861015611ec4578535611eb581611b36565b82529482019490820190611ea2565b96505086013592505080821115611eda57600080fd5b50611ee785828601611c8d565b9150509250929050565b600081518084526020808501945080840160005b83811015611f2157815187529582019590820190600101611f05565b509495945050505050565b6020815260006112d26020830184611ef1565b600060208284031215611f5157600080fd5b81356112d281611b36565b60008060008060608587031215611f7257600080fd5b8435611f7d81611b36565b935060208501359250604085013567ffffffffffffffff80821115611fa157600080fd5b818701915087601f830112611fb557600080fd5b813581811115611fc457600080fd5b886020828501011115611fd657600080fd5b95989497505060200194505050565b60008060008060808587031215611ffb57600080fd5b843561200681611b36565b93506020850135925060408501359150606085013567ffffffffffffffff81111561203057600080fd5b61203c87828801611d59565b91505092959194509250565b60006020828403121561205a57600080fd5b813567ffffffffffffffff81111561207157600080fd5b8201601f8101841361208257600080fd5b610dd384823560208401611cfb565b600080604083850312156120a457600080fd5b82356120af81611b36565b9150602083013580151581146120c457600080fd5b809150509250929050565b600080600080608085870312156120e557600080fd5b84356120f081611b36565b9350602085013567ffffffffffffffff8082111561210d57600080fd5b61211988838901611c8d565b9450604087013591508082111561212f57600080fd5b61213b88838901611c8d565b9350606087013591508082111561215157600080fd5b5061203c87828801611d59565b6000806040838503121561217157600080fd5b823561217c81611b36565b9150602083013567ffffffffffffffff81111561219857600080fd5b611ee785828601611c8d565b600080604083850312156121b757600080fd5b82356121c281611b36565b915060208301356120c481611b36565b600080600080600060a086880312156121ea57600080fd5b85356121f581611b36565b9450602086013561220581611b36565b93506040860135925060608601359150608086013567ffffffffffffffff81111561222f57600080fd5b611e1a88828901611d59565b60028104600182168061224f57607f821691505b6020821081036122725760e060020a634e487b7102600052602260045260246000fd5b50919050565b6020808252818101527f4f776e61626c653a2063616c6c6572206973206e6f7420746865206f776e6572604082015260600190565b60e060020a634e487b7102600052603260045260246000fd5b60e060020a634e487b7102600052601160045260246000fd5b6000600182016122f1576122f16122c6565b5060010190565b60208082526031908201527f455243313135355472616461626c652363726561746f724f6e6c793a204f4e4c60408201527f595f43524541544f525f414c4c4f574544000000000000000000000000000000606082015260800190565b60006020828403121561236757600080fd5b81516112d281611b36565b60208082526028908201527f455243313135353a2069647320616e6420616d6f756e7473206c656e6774682060408201527f6d69736d61746368000000000000000000000000000000000000000000000000606082015260800190565b60208082526025908201527f455243313135353a207472616e7366657220746f20746865207a65726f20616460408201527f6472657373000000000000000000000000000000000000000000000000000000606082015260800190565b6020808252602a908201527f455243313135353a20696e73756666696369656e742062616c616e636520666f60408201527f72207472616e7366657200000000000000000000000000000000000000000000606082015260800190565b6000821982111561249c5761249c6122c6565b500190565b6040815260006124b46040830185611ef1565b82810360208401526124c68185611ef1565b95945050505050565b60208082526021908201527f455243313135353a206d696e7420746f20746865207a65726f2061646472657360408201527f7300000000000000000000000000000000000000000000000000000000000000606082015260800190565b6000600160a060020a03808816835280871660208401525060a0604083015261255860a0830186611ef1565b828103606084015261256a8186611ef1565b9050828103608084015261257e8185611baa565b98975050505050505050565b60006020828403121561259c57600080fd5b81516112d281611b77565b600060033d11156125dd5760046000803e7c01000000000000000000000000000000000000000000000000000000006000510490505b90565b600060443d10156125ee5790565b6040516003193d81016004833e81513d67ffffffffffffffff816024840111818411171561261e57505050505090565b82850191508151818111156126365750505050505090565b843d87010160208285010111156126505750505050505090565b61265f60208286010187611c3c565b509095945050505050565b60208082526028908201527f455243313135353a204552433131353552656365697665722072656a6563746560408201527f6420746f6b656e73000000000000000000000000000000000000000000000000606082015260800190565b6000600160a060020a03808816835280871660208401525084604083015283606083015260a060808301526126ff60a0830184611baa565b97965050505050505056fea2646970667358221220ea47f7938bac7f7c14cea4c72bb2144b2d32e74548ee558010cad1376e5c354164736f6c634300080d0033",
  "immutableReferences": {},
  "source": "// SPDX-License-Identifier: MIT\npragma solidity 0.8.13;\n\nimport \"@openzeppelin/contracts/token/ERC1155/ERC1155.sol\";\nimport \"@openzeppelin/contracts/utils/Counters.sol\";\nimport \"@openzeppelin/contracts/access/Ownable.sol\";\nimport \"@openzeppelin/contracts/utils/Strings.sol\";\nimport \"@openzeppelin/contracts/security/Pausable.sol\";\nimport \"@openzeppelin/contracts/utils/math/SafeMath.sol\";\n\ncontract OwnableDelegateProxy {}\n\ncontract ProxyRegistry {\n  mapping(address => OwnableDelegateProxy) public proxies;\n}\n\ncontract BasicToken is ERC1155, Pausable, Ownable {\n  using Counters for Counters.Counter;\n  Counters.Counter private tokenId;\n  using Strings for string;\n  using SafeMath for uint256;\n\n  address proxyRegistryAddress;\n  address private factory;\n  mapping(uint256 => address) public creators;\n  mapping(uint256 => uint256) public tokenSupply;\n\n  // Contract name\n  string public name;\n  // Contract symbol\n  string public symbol;\n\n  /**\n    * @dev Require msg.sender to be the creator of the token id\n    */\n  modifier creatorOnly(uint256 _id) {\n      require(\n          creators[_id] == msg.sender,\n          \"ERC1155Tradable#creatorOnly: ONLY_CREATOR_ALLOWED\"\n      );\n      _;\n  }\n\n  /**\n    * @dev Require msg.sender to own more than 0 of the token id\n    */\n  modifier ownersOnly(uint256 _id) {\n      require(\n          balanceOf(msg.sender, _id) > 0,\n          \"ERC1155Tradable#ownersOnly: ONLY_OWNERS_ALLOWED\"\n      );\n      _;\n  }\n  modifier onlyFactory() {\n    require(factory == msg.sender, \"Only Factory can call the method\");\n    _;\n  }\n\n  constructor( string memory _name, string memory _symbol ) ERC1155(\"\") {\n    name = _name;\n    symbol = _symbol;\n  }\n\n  /**\n    * @dev Returns the total quantity for a token ID\n    * @param _id uint256 ID of the token to query\n    * @return amount of token in existence\n    */\n  function totalSupply(uint256 _id) public view returns (uint256) {\n    return tokenSupply[_id];\n  }\n  /**\n   * @dev Will update the base URL of token's URI\n   * @param _newBaseMetadataURI New base URL of token's URI\n   */\n  function setBaseMetadataURI( string memory _newBaseMetadataURI ) public onlyOwner {\n    _setURI(_newBaseMetadataURI);\n  }\n\n  function pause() public onlyOwner {\n    _pause();\n  }\n\n  function unpause() public onlyOwner {\n    _unpause();\n  }\n\n  /// @param _factory factory address to delegatecall, mint tokens\n  function setFactory(address _factory) public onlyOwner {\n    factory = _factory;\n  }\n\n  /**\n  * @dev Creates a new token type and assigns _initialSupply to an address\n  * NOTE: remove onlyOwner if you want third parties to create new tokens on your contract (which may change your IDs)\n  * @param _initialOwner address of the first owner of the token\n  * @param _initialSupply amount to supply the first owner\n  * @param _data Data to pass if receiver is contract\n  * @return The newly created token ID\n  */\n  function create(address _initialOwner, uint256 _initialSupply, bytes calldata _data ) external onlyOwner returns (uint256) {\n\n    uint256 _id = tokenId.current();\n    tokenId.increment();\n    creators[_id] = msg.sender;\n\n    _mint(_initialOwner, _id, _initialSupply, _data);\n    tokenSupply[_id] = _initialSupply;\n    return _id;\n  }\n\n   /**\n    * @dev Mints some amount of tokens to an address\n    * @param _to          Address of the future owner of the token\n    * @param _id          Token ID to mint\n    * @param _quantity    Amount of tokens to mint\n    * @param _data        Data to pass if receiver is contract\n    */\n  function mint(address _to, uint256 _id,uint256 _quantity,bytes memory _data) public creatorOnly(_id) {\n    _mint(_to, _id, _quantity, _data);\n    tokenSupply[_id] = tokenSupply[_id].add(_quantity);\n  }\n\n  /**\n    * @dev Mint tokens for each id in _ids\n    * @param _to          The address to mint tokens to\n    * @param _ids         Array of ids to mint\n    * @param _quantities  Array of amounts of tokens to mint per id\n    * @param _data        Data to pass if receiver is contract\n    */\n  function batchMint( address _to, uint256[] memory _ids, uint256[] memory _quantities, bytes memory _data) public {\n    for (uint256 i = 0; i < _ids.length; i++) {\n      uint256 _id = _ids[i];\n      require(creators[_id] == msg.sender, \"ERC1155Tradable#batchMint: ONLY_CREATOR_ALLOWED\");\n      uint256 quantity = _quantities[i];\n      tokenSupply[_id] = tokenSupply[_id].add(quantity);\n    }\n    _mintBatch(_to, _ids, _quantities, _data);\n  }\n  \n  /**\n    * @dev Change the creator address for given tokens\n    * @param _to   Address of the new creator\n    * @param _ids  Array of Token IDs to change creator\n    */\n  function setCreator( address _to, uint256[] memory _ids ) public {\n    require(_to != address(0), \"ERC1155Tradable#setCreator: INVALID_ADDRESS.\");\n    for (uint256 i = 0; i < _ids.length; i++) {\n      uint256 id = _ids[i];\n      _setCreator(_to, id);\n    }\n  }\n\n  /**\n   * Override isApprovedForAll to whitelist user's OpenSea proxy accounts to enable gas-free listings.\n   */\n  function isApprovedForAll( address _owner, address _operator) public view override returns (bool isOperator) {\n    // Whitelist OpenSea proxy contract for easy trading.\n    ProxyRegistry proxyRegistry = ProxyRegistry(proxyRegistryAddress);\n    if (address(proxyRegistry.proxies(_owner)) == _operator) {\n      return true;\n    }\n    if (address(0x207Fa8Df3a17D96Ca7EA4f2893fcdCb78a304101) == _operator) {\n      return true;\n    }\n\n    return ERC1155.isApprovedForAll(_owner, _operator);\n  }\n\n  /**\n    * @dev Change the creator address for given token\n    * @param _to   Address of the new creator\n    * @param _id  Token IDs to change creator of\n    */\n  function _setCreator(address _to, uint256 _id) internal creatorOnly(_id){\n    creators[_id] = _to;\n  }\n\n  /**\n    * @dev Returns whether the specified token exists by checking to see if it has a creator\n    * @param _id uint256 ID of the token to query the existence of\n    * @return bool whether the token exists\n    */\n  function _exists( uint256 _id ) internal view returns (bool) {\n    return creators[_id] != address(0);\n  }\n\n  function _beforeTokenTransfer(address operator, address from, address to, uint256[] memory ids, uint256[] memory amounts, bytes memory data) internal override whenNotPaused {\n    super._beforeTokenTransfer(operator, from, to, ids, amounts, data);\n  }\n}\n",
  "sourcePath": "/Users/filipemachado/Documents/projetos/goBlock/estudos/contracts/Token.sol",
  "compiler": {
    "name": "solc",
    "version": "0.8.13+commit.abaa5c0e.Emscripten.clang"
  },
  "schemaVersion": "3.4.3",
  "updatedAt": "2022-04-02T13:40:17.131Z",
  "networkType": "ethereum",
  "devdoc": {
    "kind": "dev",
    "methods": {
      "balanceOf(address,uint256)": {
        "details": "See {IERC1155-balanceOf}. Requirements: - `account` cannot be the zero address."
      },
      "balanceOfBatch(address[],uint256[])": {
        "details": "See {IERC1155-balanceOfBatch}. Requirements: - `accounts` and `ids` must have the same length."
      },
      "batchMint(address,uint256[],uint256[],bytes)": {
        "details": "Mint tokens for each id in _ids",
        "params": {
          "_data": "Data to pass if receiver is contract",
          "_ids": "Array of ids to mint",
          "_quantities": "Array of amounts of tokens to mint per id",
          "_to": "The address to mint tokens to"
        }
      },
      "create(address,uint256,bytes)": {
        "details": "Creates a new token type and assigns _initialSupply to an address NOTE: remove onlyOwner if you want third parties to create new tokens on your contract (which may change your IDs)",
        "params": {
          "_data": "Data to pass if receiver is contract",
          "_initialOwner": "address of the first owner of the token",
          "_initialSupply": "amount to supply the first owner"
        },
        "returns": {
          "_0": "The newly created token ID"
        }
      },
      "mint(address,uint256,uint256,bytes)": {
        "details": "Mints some amount of tokens to an address",
        "params": {
          "_data": "Data to pass if receiver is contract",
          "_id": "Token ID to mint",
          "_quantity": "Amount of tokens to mint",
          "_to": "Address of the future owner of the token"
        }
      },
      "owner()": {
        "details": "Returns the address of the current owner."
      },
      "paused()": {
        "details": "Returns true if the contract is paused, and false otherwise."
      },
      "renounceOwnership()": {
        "details": "Leaves the contract without owner. It will not be possible to call `onlyOwner` functions anymore. Can only be called by the current owner. NOTE: Renouncing ownership will leave the contract without an owner, thereby removing any functionality that is only available to the owner."
      },
      "safeBatchTransferFrom(address,address,uint256[],uint256[],bytes)": {
        "details": "See {IERC1155-safeBatchTransferFrom}."
      },
      "safeTransferFrom(address,address,uint256,uint256,bytes)": {
        "details": "See {IERC1155-safeTransferFrom}."
      },
      "setApprovalForAll(address,bool)": {
        "details": "See {IERC1155-setApprovalForAll}."
      },
      "setBaseMetadataURI(string)": {
        "details": "Will update the base URL of token's URI",
        "params": {
          "_newBaseMetadataURI": "New base URL of token's URI"
        }
      },
      "setCreator(address,uint256[])": {
        "details": "Change the creator address for given tokens",
        "params": {
          "_ids": "Array of Token IDs to change creator",
          "_to": "Address of the new creator"
        }
      },
      "setFactory(address)": {
        "params": {
          "_factory": "factory address to delegatecall, mint tokens"
        }
      },
      "supportsInterface(bytes4)": {
        "details": "See {IERC165-supportsInterface}."
      },
      "totalSupply(uint256)": {
        "details": "Returns the total quantity for a token ID",
        "params": {
          "_id": "uint256 ID of the token to query"
        },
        "returns": {
          "_0": "amount of token in existence"
        }
      },
      "transferOwnership(address)": {
        "details": "Transfers ownership of the contract to a new account (`newOwner`). Can only be called by the current owner."
      },
      "uri(uint256)": {
        "details": "See {IERC1155MetadataURI-uri}. This implementation returns the same URI for *all* token types. It relies on the token type ID substitution mechanism https://eips.ethereum.org/EIPS/eip-1155#metadata[defined in the EIP]. Clients calling this function must replace the `\\{id\\}` substring with the actual token type ID."
      }
    },
    "version": 1
  },
  "userdoc": {
    "kind": "user",
    "methods": {
      "isApprovedForAll(address,address)": {
        "notice": "Override isApprovedForAll to whitelist user's OpenSea proxy accounts to enable gas-free listings."
      }
    },
    "version": 1
  }
}